:020000040800F2
:1000000000500020A13401084D350108251E0108CB
:100010004D3501084D3501084D350108000000003F
:100020000000000000000000000000004D35010845
:100030004D350108000000004D350108FD1D010887
:100040004D3501084D3501084D3501084D35010884
:100050004D3501084D3501086D1D0108691D010868
:100060004D3501084D3501084D3501084D35010864
:100070004D3501084D350108291D01084D35010890
:10008000711D01084D3501084D3501084D35010838
:100090004D3501084D3501084D350108651D010834
:1000A0004D350108E51C01084D350108F51C010816
:1000B000D51C0108C51C0108B51C0108AD1D0108AF
:1000C000A51D0108A91D0108A11D01084D35010844
:1000D0004D3501081D1D0108111D0108051D0108F0
:1000E0000D1E01084D3501084D35010800000000C6
:1000F0000000000000000000000000000000000000
:0C01000000000000000000005FF808F1A3
:100110002DE9F04F764B774EA3B033600023736028
:1001200008F016FC18B90DF033FF08F035FC11F09B
:10013000E5F8714B714C1A78A17B42F001021A70FC
:1001400000230A930B930C934FF4E0130D936C4B25
:100150001A681E4642F480321A609A6942F0100210
:100160009A61336803F400330B930A9B01330A93BB
:100170000B9B1BB90A9BB3F5A06FF2D13268604BA1
:1001800012F4003201D0022315E0186840F001009B
:1001900018600A92336803F002030B930A9B013341
:1001A0000A930B9B1BB90A9BB3F5A06FF2D133687E
:1001B0009A0739D501230C93524B53481A6842F0E1
:1001C00010021A601A6822F003021A601A6842F0DC
:1001D00002021A607368736073687360736843F433
:1001E00080637360494B1A68043B22F070425A6086
:1001F000474A1060706820F47C107060586840F0C6
:1002000000405860D86820F40040D8609B681B0408
:1002100049BF404B4FF4E01313604FF480130D932C
:100220000C9B012B01D117E0FEE7022B18D169B11D
:100230000D9BB3F5801F02D14FF4A01305E00D9B79
:10024000B3F5E01F02D14FF400130D9371680D9BBD
:100250000B4343F4803302E0736843F4601373602C
:10026000336843F0807333603168254B8F01FBD5D1
:10027000596821F003015960596841F00201596041
:1002800073681F4903F00C03082B0793F8D14868E3
:10029000214B00F00C00042803D0082804D01A4990
:1002A00000E01168196011E048684D68C0F38340B0
:1002B000ED0300F1020001D4184905E0496811F48A
:1002C000003F116818BF4908484318607068144916
:1002D000C0F30310084490F87880186820FA08F8F2
:1002E000C3F800801368084A93421BD101221DE025
:1002F000AF4E0008C0000020443200200409002056
:10030000001002400020024000127A000410014058
:1003100000000020001BB7004000002000093D0045
:10032000C8840108A34A934202D10222A24B1A7048
:10033000DFF8F492A14B22ADC9F80C30B369DFF8B5
:10034000B0A243F00103B361736A002743F08073E6
:100350007362B3699A4843F01C03B3614FF6FF73AD
:1003600025F82C3D29468DF85E7005F07CFB504643
:10037000294605F078FB2946924805F074FB924B1C
:1003800028465A6842F000725A6008F0D3FF8F4A3C
:10039000179B8F48B3FBF2F3836039460C228D48DC
:1003A00015F0ABFB4FF47A728B4BB8FBF2F808F107
:1003B000FF325A60F02289F8232007229F601A60DA
:1003C000A368DFF83482DFF86492C8F80030834B0A
:1003D0000FCB85E80F00B369179843F00803B361AA
:1003E000B36918A943F00803B3610823CAF81030B1
:1003F0001023CAF8103005F036FB19981AA905F039
:1004000032FBD8F800301A074DD599F81A31012B74
:1004100049D87349734AB1F800E0138899F81B0171
:1004200043EA0E4E704B89469E4592469B4640F0ED
:100430007985002F37D06D49DFF8B4810868604FA7
:100440001022C8F81420294617903846049205F067
:100450000AFB082139613C2004F0C3FC049AC8F867
:1004600010204FF0000894F81B31984512DA6049CB
:1004700008230B6178207B610491039304F0A6FCB0
:100480000499039B78204B613B6104F09FFC08F1C9
:100490000108E8E7B9F80020BAF8003043EA02435F
:1004A0005B4540F04685642004F09BFCA022514847
:1004B000002115F022FBF369002243F00703F361EA
:1004C000B36943F4006343F00C03B361404B4FF056
:1004D000000903F10C0102F8019001320E2AF5D156
:1004E000FF229A76DA761A775A77434A434B17688F
:1004F000434A49461A6043483C2215F0FEFA07F089
:100500004008052349460C203F4A484311F802E0C1
:100510003C4A00F802E0B8F1000F0AD1AEF11E0E1D
:10052000BEF1010F05D84FF0FF0E013B00F802E0CD
:10053000DBB201310529E6D1344A94F805A01370E5
:10054000334B234883F800A0324A334B17F0200F77
:10055000036202EBCA0393F89D30304E18BF0123AB
:10056000336000232E4A40F2DC5199520233142B9F
:10057000F8D110A800211C2215F0BFFA17F4007959
:1005800007F4006B54D0BB040FD4BBF1000F09D0AB
:10059000244A94F80E01A2F10C01012818BF0A4662
:1005A000069204E01B4B069301E01E480690169548
:1005B00040E000BF001BB7006C3200200005FA05C8
:1005C00000080140001001400000014040420F00BF
:1005D000C00000203832002010E000E05085010803
:1005E000106C0040086C004007B0F75060850108AF
:1005F000000C01409830002040070020901C002093
:10060000480A0020441E002095A50108411E002034
:10061000C4180020C88401081409002054130020C5
:10062000B0180020D484010800ED00E00409002087
:10063000CDF81890BAF10E0F02D0BAF1080F02D11E
:1006400001228DF85220012009F0CAF918B1408822
:10065000003018BF0120C7F3400218F100088DF8E0
:100660004620C7F3403200F0010018BF4FF00108E8
:100670008DF84020C7F3C0328DF845008DF84880D2
:100680008DF84320BBF1000F07D094F80EB1BBF1F9
:10069000010EDEF1000B5BEB0E0B19F1000318BF2E
:1006A00001238DF84A303368B4F8D400003318BF02
:1006B00001238DF84B30B94BC7F300421B688DF80E
:1006C000492093F8723107F00101C3F380038DF8DC
:1006D0004C30B4F8D630C7F3C002ADF85030B4F89F
:1006E000E230ADF85600ADF84E30C7F380438DF8D8
:1006F0004730B4F8E030F8048DF844B08DF841107C
:100700008DF84220ADF8543004D5A548B0F8DC008F
:10071000ADF85600B3F5FA7F88BF0023A14888BF23
:10072000ADF8563094F82A3180F82430002380F850
:10073000253080F826309DF85230002B14BF02235C
:10074000002301B902B10133974A4FF0000802EBD0
:100750008303D3F85C31CDF814800893089B33F8F9
:1007600008204FF6FF739A4200F08281D3B28F4F78
:100770009DF845101E01BC1919B1991E012940F2BE
:1007800071819DF8481021B1B9598948814200F022
:1007900069819DF849E0BEF1000F04D0B959844841
:1007A000814200F05F819DF8461039B1616881484F
:1007B000814203D12189102900F054819DF8431012
:1007C00039B161687B48814203D12189022900F057
:1007D00049819DF8441039B161687748814203D15D
:1007E0002189022900F03E81DDF858C0BCF1000FDC
:1007F0000FD06068DCF8001088420AD12189BCF86B
:100800000400884200F02E81BCF80600884200F007
:1008100029814FEA1229B9F1020F02D19DF8402037
:1008200004E0B9F1010F04D19DF84120002A00F045
:1008300019819DF84B2062B19DF852204AB9A3F16D
:100840000802012A05D8B9595C4A914208BF4FF005
:1008500004099DF84C2062B19DF852204AB9BEF1BE
:10086000000F02D00C3B012B01E0043B032B40F2B4
:10087000E180B9F1010F41D14A4BFF2283F86C208E
:1008800083F86D202189627B4FF0000A83F870A005
:10089000DC676068ADF85C108DF85E2029460222A6
:1008A00083F828A0C3F82CA0C3F830A0C3F834A064
:1008B000C3F868A083F86EA083F86FA08DF85F205E
:1008C000039305F0D0F8B859A17A52460CF080FF96
:1008D000204651464A460FF07BFA039B384AC3F83C
:1008E00088A0C3F88020374A2046C3F8842003F14B
:1008F000800103F184020EF053FBB3E0B9F1020F63
:100900003DD105981C22C3B25A432F494FF0000B2A
:1009100001EB020A01238AF801008AF802B08AF882
:100920000AB08B542189627B6068CAF80C40ADF82C
:100930005C1017A903938DF85E208DF85F9005F089
:1009400092F8B859A17A5A460CF042FF039B204610
:100950001A4659460FF03CFA1C4B0AF11402CAF829
:1009600010301B4BCAF818B0CAF8143020460AF1F0
:1009700010010EF015FB059A0132059272E0B9F1F3
:10098000030F54D19DF84730064E1BB396F82670DE
:10099000204608214FF6FF7200233AE09011002014
:1009A00004090020C0000020C88401089CA501089B
:1009B0000004004000080140000C0140002C0140F0
:1009C000D7480008D9490008300100200DD8000898
:1009D000B1490008BDF8543096F82670B3F5FA7F97
:1009E0000FD9A44A2046B2FBF3F20821BDF85630D5
:1009F00092B207F061FD06EB8707C7F850019E4BE6
:100A00000EE09E4A2046B2FBF3F2BDF856300121BB
:100A100092B207F051FD06EB8707994BC7F85001DA
:100A2000C36096F82630013386F826301AE0B9F113
:100A3000040F17D1BDF84E30904A924E92FBF3F25C
:100A40002046BDF85030012192B296F8257007F08B
:100A500033FD96F8253006EB87070133C7F8800190
:100A600086F8253008F10208B8F11C0F7FF476AE45
:100A7000844B93F82520994683F8A821824A16785A
:100A8000172E1FD10024D9F820300021185903EB6C
:100A9000040812F0E7F830B17C4B1A68984612F45B
:100AA000805F2CD127E07A4F98E80F00274487E831
:100AB0000F00784B10341A78C02C02F101021A7022
:100AC000E1D1E9E77448734A00EBC60393F89CE070
:100AD000D3F8A0C082F800E0BCF1000FDCD0002405
:100AE0007445D9DA6A4F23011F4463440FCB0134A4
:100AF00087E80F00F4E7082E684B26D127E0654B06
:100B000093F80090B9F1010FF5D9654C00274F45D6
:100B100004F11004EFDA54F8100C4FF07C5111F08E
:100B20000DFF4FF07C5144F8100C54F8140C11F0E8
:100B300005FF4FF07C5144F8140C54F80C0C11F0E4
:100B4000FDFE013744F80C0CE1E70E2E03D11A78B4
:100B500042F0100202E01A7822F010021A700AF035
:100B6000EFFAD8F800305A0302D44E4B01221A7023
:100B70004D4B4E4C1A784E4E42F004021A702378B8
:100B80004FF48052012B8CBF102314238DF85E305C
:100B90004FF002038DF85F30B369ADF85C2043F08D
:100BA0000403B3618CBF012700274248294604F0A3
:100BB0005AFF414B0FB1414A00E0414A00201A6000
:100BC00004F042F93F4B404F93E80300B36985E8D6
:100BD000030043F0080318A9B361179804F043FF1A
:100BE0000DF090FF9F238DF83C30322000234FF40E
:100BF00080598DF83D308DF83E308DF83F3004F04F
:100C0000F0F80422C7F8149028460FA910F016FF38
:100C1000C7F810909DF85E209DF85D30120242EA00
:100C200003429DF85F301A43284B9A4214D0322079
:100C300004F0D7F8C7F81490F52007F06DFFFF20F7
:100C400007F06AFF7028C7F8109005D12378022BAF
:100C500002D1164B03221A702378032B0CBF1F20DE
:100C6000022008F074FE2378032B31D0012009F014
:100C700023FE37E000127A00F949000840420F00D5
:100C8000E9490008C0000020C418002040070020E7
:100C90006C0200206B320020C8840108FE0800208E
:100CA00074020020C5180020443200206C3200205D
:100CB000001002400008014048320020714700083F
:100CC0008547000834860108000C014015202000EB
:100CD000022008F085FE18B14088003018BF0120BE
:100CE000C307C3D594F80090A34C4FF0100A2046D8
:100CF00000215246D8F8005014F0FFFE4FF6FF7363
:100D0000ADF83C30022305F4004805F400674FF0CD
:100D1000000B1D408DF83E308DF83FB00DD0974848
:100D20000FA9ADF83CA008F057FB04232370012560
:100D3000072384F801B0A570E370B9F1010F0FD952
:100D400020238E480FA9ADF83C3008F045FB052361
:100D500001222372A2726B1C07226572E272DDB25D
:100D6000B8F1000F0ED0022384480FA9ADF83C3033
:100D700008F032FB0123EA182371A3710723657180
:100D8000E371D5B27FB102237D480FA9ADF83C30A5
:100D900008F022FB092301222373A2736B1C072294
:100DA0006573E273DDB27368764843F44043736061
:100DB0007369744F43F001037361B36943F40073C3
:100DC000B36108F0E7FB704B002617936F4B022DC1
:100DD000189334BF334680231C934FF480731D93C4
:100DE0004FF480631E93202317A91F9338464FF4B6
:100DF00000531A95209319961B96219608F0ACFB88
:100E00003B68012D43F001033B60614B98BF00211B
:100E10005A6888BF012122F4702222F4807242EACB
:100E200001225A6099685B4A013D0A4042F46022FF
:100E300042F002029A60DA6AEDB222F4700242EAEB
:100E40000555DD623046012321188A78002A51D0E9
:100E5000225C5D1C092ACF78EDB24D4910D9A2F170
:100E60000A0606EB46064FF0070E0EFA06FEB740DE
:100E7000D1F80CC02CEA0E0E4EEA0706CE600DE04B
:100E800002EB42064FF0070E0EFA06FEB740D1F80D
:100E900010C02CEA0E0E4EEA07060E61062B3C49E6
:100EA0000CD8013B03EB83031F269E409A404F6BF7
:100EB00027EA060646EA02034B631CE00C2B0CD81B
:100EC000073B03EB83031F269E409A400F6B27EAE4
:100ED000060646EA02030B630DE00D3B03EB8303BA
:100EE0001F269E409A40CF6A27EA060646EA02037A
:100EF000CB6200E01D460430102801D02B46A3E74A
:100F0000234B9A6842F480729A609A6842F0010218
:100F10009A609A6842F008029A6099681C4A0F0722
:100F20000FD5FAE7471E092F8CBF00270127FFF7CF
:100F300080BA194B002283F81B210DF039FEFFF710
:100F4000B2BA936843F004039360114A936813F0B4
:100F50000403FAD1916841F4A00191600E4AB2F8FD
:100F6000E800E0B9B2F9EA30C3B9B2F9EC30D3F134
:100F7000010338BF002312E0681B00200008014075
:100F8000000C0140080002404C240140781B002066
:100F900000240140FDF7F1FF04090020034613F08F
:100FA000010340F08B80B04A00B2137111F072FC63
:100FB000AE4911F0C3FCAE4C0646B4F9EA0011F09C
:100FC00069FCAA4911F0BAFC0546B4F9EC0011F02D
:100FD00061FCA64911F0B2FC0446304615F00AF84F
:100FE0000746304615F07AF88046284615F002F894
:100FF0000646284615F072F80546204614F0FAFF1A
:101000008246204615F06AF839468146504611F06E
:1010100095FC39468346484611F090FC51460590B0
:10102000404611F08BFC49460890404611F086FC82
:1010300031460990504611F081FC8E4C4946C4F867
:101040006C0206F1004011F079FC2946C4F87002E8
:10105000C4F87452089811F071FC0146059811F01B
:1010600065FB2946C4F87802099811F067FC01462F
:10107000584611F059FB3146C4F87C0208F1004093
:1010800011F05CFC2946C4F88002584611F056FC69
:101090000146099811F048FB2946C4F884020598D6
:1010A00011F04CFC0146089811F040FB3946C4F899
:1010B0008802304611F042FCC4F88C026E4B6D4C35
:1010C0001B6813F4003F20D0C82003F08AFEAE2036
:1010D00010F05BFD08B110F05DFD84F89002C820AF
:1010E00003F07FFE654B00210C226548C4F8943262
:1010F00014F003FD022384F89B320EF07FFA03F014
:101100004BFE604B0344C4F8A032594B5E4EB3F81B
:10111000F09093F8EF7093F8F7A05C4B5C4D1B6870
:101120002978B3F85EB0002333705A4BA3F118024C
:10113000012998BF1346C4F8A43209F01DFE804669
:1011400030B3554B554AB9F1BB0F1A60544A5A6037
:10115000544ADA60444B01D9012212E0B9F1610F1F
:1011600001D902220DE0B9F1290F01D9032208E0CB
:10117000B9F1130F01D9042203E0B9F1090F05D920
:1011800005225A710123337002239AE00622F8E700
:10119000192003F026FE68201521424609F08CFC38
:1011A00060B33D4B404AB9F1620F1A603F4A5A6042
:1011B0003F4A9A603B4ADA602B4B12D006D8B9F10D
:1011C0000A0F15D0B9F1140F10D00DE0B9F1BC0F12
:1011D00005D0B9F5807F07D183F806800AE00122A7
:1011E00000E002229A7105E00322FBE70422F9E7FE
:1011F0000522F7E701233370042362E095F80080AD
:10120000B8F1030F40F05881752017A9012207F0AB
:10121000FDFC9DF85C30702B40F04E811E4B254A42
:10122000B9F1BB0F1A60244A5A601E4ADA600E4BAD
:1012300001D9012213E0B9F1610F01D902220EE0B8
:10124000B9F1290F02D983F8078037E0B9F1130FFC
:1012500001D9042203E0B9F1090F02D90522DA719C
:101260002CE00622FBE700BF0000002035FA8E3C90
:1012700004090020C000002040070020160A0020BA
:1012800058030020404B4C00AA1100209011002070
:101290006C320020F88401089411002081190108A3
:1012A00039AD000890C1793DED190108D5AD0008B0
:1012B000A3AD0008858B0008358C0008012333702E
:1012C00007236D4A13706D4B1968994641F001016F
:1012D00019606B4E00233370082F01F26D80DFE838
:1012E00017F009006B08090027007C009B0027000D
:1012F000B200B2002B78012B1AD84FF0000822ABB5
:1013000003F82C8D53204146012209F015FC78B1D9
:101310009DF85C30E52B0BD15A4B5B4A84F8A882D0
:101320001A605A4A5A6004233370022300F029BE1F
:10133000574B2978A3F11802012998BF1346DFF80B
:101340007481C4F8A43209F017FD002845D00621A5
:1013500017AB68200A4609F0EFFB9DF85F309DF857
:10136000617003F001035B0007F0010743EA8707A0
:101370009DF85D3003F001031F4306D0012F01D11A
:10138000002317E0022F0BD113E00FAB68200C21D4
:10139000012209F0D1FB9DF83C3013F00F0303D17B
:1013A00005200BF047FC07E0042B02D188F8A97256
:1013B00002E0012388F8A932324B364A1A60364AD5
:1013C0005A6094F8A922002A14BF6E226F221A7262
:1013D00001233370032300F0D4BD2B78012B1BD8DD
:1013E000002222AB03F82C2D1C200D21012209F034
:1013F000A3FB88B19DF85C302A2B01D01A2B0BD1AE
:10140000204A264984F8AA32116025490223337004
:101410005160042300F0B5BD002122AB03F82C1D60
:101420001820012209F088FB68B19DF85C30FB2B85
:1014300009D1144B1B4A1A601B4A5A6001233370AE
:10144000052300F09EBD2B78032B40F0B587752057
:1014500017A9012207F0DAFB9DF85C30702B40F0F1
:10146000AB87084B114A1A60114A5A600123337046
:10147000082300F086BD00BF3C000020A408002027
:101480004C320020001200208D160108AFAE00087B
:10149000F88401086DCD0008F9AC0008E5160108D4
:1014A00013AE0008691601086BAE0008514C000825
:1014B000718C0008C000002003200BF0BBFBB44B74
:1014C00010211A780A2642F002021A70B14A5161BC
:1014D00008211161AF4D1920EB68013E83F0100324
:1014E000EB60EB6883F00803EB6003F07AFC01200B
:1014F00003F0AAFC192003F074FC002003F0A4FC04
:1015000016F0FF06E6D108232B611026A24B2E61B0
:101510001A68994612F0080F07D0A04B6E611B683D
:1015200098479F4B01222E611A709E4B9E4D1B685F
:10153000187B11F0AFF99D4911F000FA14F05AFD33
:101540000646288811F0A6F9314611F0F7F914F093
:1015500087FD974B1880288811F09CF90146954823
:1015600011F0A0FA944911F09DFA944B8F4918603C
:10157000934B944DD86811F0E1F9934911F0DEF9DD
:10158000924BFF2118601622284614F0B6FA00226A
:101590002A70D9F800208E4B012112F0020F197029
:1015A000284604D06970032119700221A9705607DA
:1015B00004D519784D1C1D700325455412F00A0FEF
:1015C0000CD01A7804218154511CC9B20525455408
:1015D000D11C02321970D2B2062181547D4E32687C
:1015E000950604D519784D1C1D7007254554110624
:1015F00008D51978092545548D1C01311D70C9B2D3
:101600000A25455474494979082901D00E2904D185
:1016100019784D1C1D700B25455419780C274D1C4D
:10162000EDB24754D7031D7005D5694F02313970AB
:1016300064490E274F55510704D519784D1C1D706C
:1016400010254554197812274D1CEDB212F4806F05
:1016500047541D70604F0ED097F870E1BEF1000F37
:1016600009D001F1020E5A4981F800E055494FF0C6
:10167000130E01F805E01978920501F10105EDB2AC
:101680001D704FF01403435405D5514B02311970AE
:101690004C4B15225A5500219822504814F02DFA2F
:1016A0000FF028F84E4900234E4A4B804E4D0B71E7
:1016B000B7F820014D49C5F8EC220A6081B24C4AC6
:1016C00099520233242BFAD133681B0740F1208151
:1016D00097F81A31062B00F21581DFE803F00404B5
:1016E00031A3BAD6D6004349434A012B0A60434886
:1016F000434909D14FF0030E80F800E0072085F838
:10170000F03208700C2307E00223037003230B70F0
:10171000002385F8F032072313703A4B4020C5F8B8
:10172000F43208F001F9002800F0EC8001234FF0BA
:10173000000B90F9000040218DE80808324A85E04E
:1017400011F0A8F8314911F0F9F8314910F0ECFF27
:1017500011F0E0FA00232F4A98500433482BFAD1B5
:101760002D4B1222C5F8F432234B40201A7008F09A
:10177000DBF8002800F0C68001234FF0070A90F93B
:10178000000040218DE80804244A254BB4E000BF46
:1017900044320020000C0140A4080020F008002082
:1017A000FC0F0020481200201000002035FA8E3C6B
:1017B0006C1200200AE81C4100401C464011002029
:1017C00094110020CB1D0020BD3786354412002027
:1017D000CA1D00204007002004090020F41B00203F
:1017E000A0220020160A0020C0000020440700208C
:1017F000BA0800204C070020FA1D002049070020ED
:10180000500700203D8E0008998F0008CDCCCC3FBA
:101810000000B04498070020898E0008A5900008B9
:10182000A08601005D4B1022C5F8F4325C4B4020CD
:101830001A7008F079F8002864D001234FF00008EE
:1018400090F900008DE80801564A40214FF4E13339
:1018500052E0554B0822C5F8F432514B40201A7023
:1018600008F062F800284DD001234FF0000C90F9E9
:10187000000040218DE808104C4A4FF4E1330DF090
:10188000F7F84B4BC3F8F80238E045490C22062B19
:1018900048480A7010D00023037085F8FC3285F8A0
:1018A000FD321B2385F8FE32052385F8FF2285F8DB
:1018B00000334FF4E13A0EE00021017085F8FC128C
:1018C00085F8FD12DFF80CA1212185F8FE1285F8BC
:1018D000FF2285F80033384B4020C5F8F43208F079
:1018E00023F878B101234FF0000E344A90F900003C
:1018F00040218DE8084053460DF0BAF8003018BF7B
:10190000012028B9082003F038FE0023C5F8F4327E
:101910003368234A13F4804F04D0082111702849FA
:10192000C5F8F41242F20101194051B12549980459
:10193000C5F8F41244BF08211170D90744BF0C2127
:10194000117011781B06A1F1040151707DD5DFF8EB
:1019500088A04FF0000BC5F804A31B4D5946152273
:10196000DFF87880194885F801B0C5F804B0C5F8EB
:1019700008B014F0C2F8AAF104025846C8F80020D2
:1019800006F052FA124A02201268EA6007F0CCFF11
:10199000414628BB802003F0F0FD4EE0798E000820
:1019A000FA1D002031900008658E0008E58F0008C0
:1019B000C000002098080020258E0008CD8E000869
:1019C000B58E0008C18E000864110020C8030020F5
:1019D0003432002090D00300480A002084110020F7
:1019E00090F805E06B78C54A4FF00C0C0CFB032C0B
:1019F0009CF801C0F44504D00133DBB2042BF2D9CA
:101A000000236B700B6890F900001B78002B6B783B
:101A10004FF00C0505FB03220CBF01210321537875
:101A200000220091019202210DF022F8B44B1860BF
:101A30000028AFD0012006F0F7F9B24B1868B24B7E
:101A400000F5BA721A6003F0BFFE3368980555D5E9
:101A5000AE4D069B06982B60AD4B4FF0100A9A696D
:101A60000EA942F001029A610388AA48ADF8383005
:101A700002238DF83AA08DF83B3003F0F4FF2B6879
:101A8000A4485B880EA9ADF8383004238DF83A30AD
:101A900003F0E9FF2B680120197A03F0CFFF2B68D0
:101AA0009D4A5B684FF0000B536117A88DF861A049
:101AB0004FF0010A17938DF860B08DF862A007F01F
:101AC0001DFD2B680FA85B7A8DF83EB08DF83C3079
:101AD00003238DF83D308DF83FA00DF071FB8F4B47
:101AE0001A688F4B3C3A1A60D9F800304FF0FF3239
:101AF00043F01003C9F800308A4B1A608A4B8B4AB6
:101B00008B4D13608B4A8033136033684FF00009AC
:101B1000D90385F8009040F1B98003F077FD864B3A
:101B2000DFF8EC8140F22A3B4FF0010A18465A4692
:101B3000494685F800A0039313F0DFFFD8F818108A
:101B40007E4841F00401C8F818104021ADF8381063
:101B500018218DF83B1003218DF83A100EA907F0DB
:101B60003BFCD8F81C10764D41F00201C8F81C105F
:101B70007449A8F6947808687349B0FBF1F0298895
:101B8000013821F45C710904090C298080B21D21FF
:101B9000A9852885A5F814A0298C21F00101090444
:101BA000090C2984298CB5F804E0288B21F0020166
:101BB00020F0730000040904000C090C1FFA8EFECB
:101BC00040F0600041EA0A01A5F804E02883A5F886
:101BD00034902984298B21F008010904090C41F073
:101BE00008012983B5F844106FEA41416FEA514179
:101BF00089B2A5F84410D8F8A81F41EA0A01C8F82C
:101C0000A81F404607F0C6FC5049039B179180214E
:101C10001C914FF480711D914FF400511893209145
:101C20001023404617A919930393CDF86C90CDF873
:101C30007890CDF87C90CDF88490CDF868B007F01E
:101C40008BFCA989039B89B241F40071A981D8F862
:101C500000100FA841F00201C8F800108DF83C30C8
:101C60008DF83DA08DF83E908DF83FA00DF0A8FABC
:101C7000374B1A68374B49F8032009F10409B9F1C9
:101C8000800FF5D106F0D8FA06F0D6FA33685A0577
:101C900040F18E80D4F848962F4B0420C3F8009072
:101CA00007F042FE0421C4F84C0607F0ADFE2B4BB2
:101CB00084F850060820C3F8009007F035FE08218C
:101CC000C4F8540607F0A0FE254D84F858060021FC
:101CD00028462C2213F011FF8E236B704FF07C0BE3
:101CE000E0234FF07D0AEB7085F800B085F82BA05B
:101CF0001C4D2C220021284636E000BF908B0108A5
:101D00006011002090110020401300205C11002081
:101D100000100240000C0140000401403432002059
:101D20005811002028110020840A00209022002051
:101D3000901A002094220020DD03002000080140BA
:101D4000000400404000002000366E0134040040D2
:101D5000DC8F0108921A0020C822002010230020E6
:101D6000E02200201423002013F0C7FE8A236B70AA
:101D70001020A023EB7085F800B085F82BA0C4F8E4
:101D80005C9607F0D1FD1021C4F8600607F03CFE18
:101D900084F864062020C4F8689607F0C5FD202169
:101DA000C4F86C0607F030FE84F870060EF094FE5E
:101DB000B84BB94C1B78022B5BD1B84BDFF848937A
:101DC0001A88002522F040021204120C1A801A8888
:101DD000322022F038021204120C1A801A884FF4B2
:101DE000805A92B242F040021A809F238DF83C3014
:101DF0008DF83D508DF83E508DF83F5002F0F1FFC8
:101E00008DF85D500422C9F814A017A80FA90FF08F
:101E100015FEC9F810A09DF85E309DF85D201B02EC
:101E200043EA02439DF85F2013439D4A93420AD040
:101E300002F54E0202F50642934204D0994A9342BB
:101E400012D1202300E0802323704FF4807363803D
:101E5000A3804FF48033A360237801221B04E36046
:101E6000914B83F8712604E025706580A580A560FC
:101E7000E560E5680DB32D0CA9464FF0000AAA45B0
:101E800015DA0AEB050464100DF15C0B20045946C9
:101E9000102206F03FFF00235BF80320013240F0E0
:101EA0009D820433102BF7D1A1462546E7E705F0C4
:101EB0008FFD4FEA09400DF071F933687B4A13F446
:101EC000002318BF0123137002F066FF784B1860DF
:101ED0007B79052B03D1774B4FF4C8721A80764B70
:101EE0004FF47A721A80754BC8221A80744B1A7894
:101EF00042F008021A70734B1A7822F002021A702C
:101F0000326840F6020313400BB36F4B6F4A1C4616
:101F10001A6006F0EDF8282002F063FF079A013AF4
:101F20000792F6D123686A4AD87811785A789B7854
:101F3000B1FBF2F201326749082A28BF08220A7071
:101F400092B250435A436449644B08801A80336804
:101F50009B0309D5544B042283F89C2293F89B22BF
:101F600042F0010283F89B22BB685D4833605D4B01
:101F700001221A70037863F07F03037023B0BDE879
:101F8000F08F594A5370D9F8003043F00203C9F872
:101F900000302B78012B05D10AF012FE534B4FF481
:101FA00000525A610A2002F01CFF7720A021012272
:101FB0000FAB08F0C1FD38B994F8BC923A4DB9F1B5
:101FC000000F00F0A38068E11E210122772008F0B5
:101FD00073FD4FF42F6002F0F9FE0025A5F16001BA
:101FE0000026C9B2022217AB77208DF85C608DF80D
:101FF0005D6008F0A1FD9DF85D309DF85C1043EA3E
:102000000121294B03F52B72A9520235102DE5D180
:10201000B3F8BA72012107F00F0507F47F47A3F860
:10202000BA723246334622F001002044B0F8AC02C6
:10203000002818BF0021D60703D5C0B243400820AE
:1020400002E083EA1023FAE71E0448BF83F4C0537A
:1020500001384FEA4303F7D10132102AE3D12F436D
:10206000A4F8BA720029A7D1C3F303339D42A3D1C8
:102070001F4B42F210721A805A801E4A5A601E4A42
:102080009A601E4ADA601E4A1A611E4A5A61032388
:1020900098E100BF6C320020801E00200038004014
:1020A00017BA200015202000C0000020C61800200C
:1020B0009C120020121200206032002058320020B2
:1020C000FE0800206A320020C02200200A0A0020F8
:1020D0009B2200204C0000209E2200209C220020F9
:1020E00044320020C51800203C00002000100140B0
:1020F000081000202716010851AC00081D16010821
:1021000061AC00081D4A0008000C0140B54F0AF000
:1021100057FD4FF4804604230FA93846ADF83C60C4
:102120008DF83E3003F09FFC4FF400533B61AE4806
:102130000AF0B2FD0E21022003F080FC082317965E
:1021400017A801268DF861308DF860908DF86260D7
:102150004FF0030807F0D2F928230EA88DF8383085
:102160008DF839808DF83A908DF83B600DF028F8A5
:10217000142002F036FE7720D02132460FAB08F053
:10218000DBFC002800F08B809DF83C30A5F8E08255
:10219000552B85F8D73240F08280D12132460FABE3
:1021A000772008F0C9FC9DF83C30772003F00F023F
:1021B0001B0985F8D82285F8D932162217ABAA2137
:1021C00008F0BAFC9DF85C209DF85D3043EA0223DC
:1021D000A5F8C0329DF85E209DF85F3043EA0223E7
:1021E000A5F8C2329DF860209DF8613043EA0223D1
:1021F000A5F8C4329DF862209DF8633043EA0223BB
:10220000A5F8C6329DF864209DF8653043EA0223A4
:10221000A5F8C8329DF866209DF8673043EA02238E
:10222000A5F8CA329DF868209DF8693043EA022378
:10223000A5F8CC329DF86A209DF86B3043EA022362
:10224000A5F8CE329DF86C209DF86D3043EA02234C
:10225000A5F8D0329DF86E209DF86F3043EA022336
:10226000A5F8D2329DF870209DF8713043EA022320
:10227000A5F8D4325D4B41F2707285F8BC621A80C9
:1022800046F678125A805A4A5A605A4A9A605A4A0E
:10229000DA605A4A1A615A4A5A61022392E0594B4B
:1022A0001A6822F480421A60574B4F4A19689142CB
:1022B00008D05968914207D09968914208BF02221C
:1022C00006D102E0002200E00122002143F82210A2
:1022D0004FF400537B614D4E33689F0702D54C4B42
:1022E0001B6898474B4B55461B6898474A4B1F78CD
:1022F0004A4BA3F11802012F8CBF1F461746484BCB
:1023000000221A7098460DB1022D63D122AB03F85A
:102310002C2D444A1E20C2F8E4720A21012208F042
:102320000BFC002856D09DF85C30482B52D13E4B18
:102330003E4A1A603E4A5A60032388F800303D4BFB
:102340000222DA70336843F0080333603A4B93F8A3
:10235000E4200AB139490A7093F8E5200AB13849F6
:102360000A7093F8E6300BB188F8003033682D4DD1
:1023700013F0080F1BD00FFA8BF8642798FBF7F6C1
:10238000304610F087FA814607FB168000B210F045
:1023900081FA2C4910F0D2FA0146484610F0C6F9ED
:1023A000294910F0CBFAC5F8E802FFF788B80023F6
:1023B000C5F8E832FFF783B8012F7FF6EAAD0027B2
:1023C000FEF787BF1B4A9370104B1A6842F0040255
:1023D0001A6080E7012DB9D9002590E704F1010AC0
:1023E0002C4662E5001001402DED00080810002089
:1023F00055160108C1AC00083116010871AC00087F
:10240000754B00080004014038320020A408002069
:1024100000120020941100206C3200202885010851
:1024200069320020C0000020F00800207517010864
:10243000B5AB00083C00002004090020AA110020D0
:102440004C3200208988883C00002041BE4B2DE999
:10245000F04FB3F90600BD4B8BB0D3F800E0BEF8E7
:102460000A3098420FDBB0F5FA6F9EF8077007DA72
:10247000C21A5743A3F5FA6397FBF3F7643703E0F7
:10248000C7F1640700E06427B14B0021B3F82021B5
:102490000492B04AD2F800C093F9EE20644692B29A
:1024A00005920A46A84B049D31F903B0C5EB0B0316
:1024B00003F2F31640F2E635AE4203D8002BB8BF64
:1024C0005B4201E04FF4FA73022A4FF06406A24D1A
:1024D0002ED09CF81981B8F1000F04D04345CCBF31
:1024E000C8EB0303002393FBF6F86FF0630A35F89B
:1024F00018900AFB083A08F1010835F918800FFA1C
:1025000089F5C5EB080505FB0AF595FBF6F5A94429
:10251000924D21F805900EEB02052D796B43904DFD
:1025200093FBF5F364339BB27B4393FBF6F630E009
:102530009CF81A81B8F1000F04D04345CCBFC8EB1A
:102540000303002393FBF6F66FF0630905EB4608DF
:1025500009FB063A05EB4606B8F90E80B6F91050AD
:102560007E4EC8EB050505FB0AFA059D9AFBF9FAB4
:10257000C8EB0A0808FB05F8A6F804809EF8065088
:1025800083EAE376A6EBE3766E43754D96FBF5F6AC
:1025900064360CEB020898F801906F4B06FB09F9C2
:1025A0004FF0640803F11C0599FBF8F902F8059057
:1025B00094F80B9003F11F0506FB09F999FBF8F954
:1025C00002F8059094F8159003F1220506FB09F630
:1025D000022A96FBF8F656551D4616BF253383F89A
:1025E0002780D754049B5D4E9B4502DA735A5B42A9
:1025F00073520231062902F1010204F101047FF451
:1026000051AF534CB4F82231984205DBB0F5FA6F64
:10261000A8BF4FF4FA6000E01846C01A4FF47A726F
:102620005043C3F5FA63B0FBF3F34FF0640E93FB32
:10263000FEF205EB42016FF0630000FB0233098DEF
:1026400005EB4202B2F92A000AB2821A534393FB05
:10265000FEFE444B71441B88404F5B06F1803ED523
:10266000414B18883C4BB3F84030C01A00B210F010
:1026700011F93E4910F062F9804613F0BBFC814627
:10268000404613F02BFD8046B7F9020010F002F926
:102690008246B7F9000010F0FDF84946834610F075
:1026A0004DF9414603465046029310F047F9029B0C
:1026B0000146184610F038F810F006FB49463880FD
:1026C000504610F03BF941468146584610F036F925
:1026D0000146484610F02AF810F0F6FA7880244FA8
:1026E00040F602033A681340002B00F0C680214BED
:1026F00019886B6C0B446B6495F8483006210133E4
:10270000DBB2B3FBF1F085F8483001FB103313F076
:10271000FF0F40F0B280900739D505F0E9FC164B69
:10272000164A1B7812889A4206D2154A12889A4293
:1027300034BF0023012300E00223022B85F8493037
:1027400020D1072021E000BFBA0800204C13002050
:102750000409002090110020181B002026130020DF
:102760000CFEFFFFAC0800208412002035FA8E3CDE
:1027700040070020981200209B2200209C2200206D
:102780009E220020012B02D108200AF071F93A683C
:10279000110570D59649B6F90690D1F80080954B91
:1027A00098F80810D5F844B00129B4F8DE00A9F56E
:1027B0007A79914E03D047D3022923D046E093F88B
:1027C0005D20D96C03EB4202B2F86000082291FB55
:1027D000F2FE80B2CEEB0101014491FBF2F2A3F8CC
:1027E000680092B2D96440F6E4435343B8F8060057
:1027F0004FF47A72C0EB13335343B8F9042093FBC0
:10280000F2F322E07D4BB8F806A01B78C6F800A0D2
:102810005B071BD5039208F0F1FB039A20B912F075
:10282000100F18BF4FF0000909FB09F2322392FB89
:10283000F3F39944B8F904304FF47A7203FB09F3C7
:1028400093FBF2F3534400E0002333603368D5E98F
:102850001C0103FB0BFB4FF47A739BFBF3FB10EBA8
:102860000B0041EBEB710023C5E91C01644A10F039
:1028700071FA644B186000236B64634B1A689846C6
:1028800012F4805F27D03B68190621D55F4B1B7877
:102890009A071DD55E4B1978042919D900235D4E7E
:1028A00005229A55981C1E440A27122BC2B2777033
:1028B00004D0B1EB520F0346F1D800E014222A44B1
:1028C000322382F87730FF2382F878300F2000E03F
:1028D0000A200AF0CDF8D5F89020464E002A4ED0B6
:1028E0004D4BD6F8941018689946814247D896F80F
:1028F0009810B6F89A305268C9B9012786F89870CE
:10290000D35C03B3384602F09FFA86F89C7006F059
:102910006FFFB6F89A30B3B9D6F890301B78053B04
:10292000BB4210D802F038FA3C4B18600BE000278D
:1029300086F89870D35C33B1384602F085FA86F891
:102940009C7006F055FFD5F89020B5F89A105268A3
:10295000284B525CFE2A03D10022A3F89A200EE0F5
:10296000FF2A02D10AF068F809E0D9F800000A2627
:1029700006FB02020131C3F89420A3F89A101F4EFF
:102980003278530703D5264B08225A6161E0D8F804
:102990000030DF075CBF42F0010232701B4A127840
:1029A000100703D4327822F001023270D90203D525
:1029B000337823F0010333701A4B1B685A0702D592
:1029C000194A128862B9194A12880AB19F0705D4B8
:1029D000174B1B88003318BF012300E001234BB3C2
:1029E000022385F89C30337823F00103337027E00D
:1029F000C0220020181B0020CC2200206A320020B8
:102A0000407E0500D0220020A8080020FE080020FB
:102A100088110020901B002034320020601A002012
:102A2000000C0140A408002058320020121200209F
:102A3000603200203278D00758BF022385F89C30DE
:102A400002F0AAF9D5F8A030C01A002801DB06F080
:102A5000CFFE0EF041F8BC4B1A78002A78D0D5F89A
:102A6000A430002B00F0EF85D5F8A400B74C02F09D
:102A700007FA002800F0E785D4F8A40002F0FBF97B
:102A8000092801D03F2855D14FF00008D5F8A8609B
:102A9000AF4F44462EB1AF483968324613F076F84E
:102AA00010B9B84604B93C46AB4B0C379F42F1D342
:102AB00004B3D4F800E0D8F800C0D5F8A830A34893
:102AC0001EF803701CF80310B94213D15A1C59B9EF
:102AD0002D2B09D8C0F8A82003442027024483F8EE
:102AE000AC7082F8AC1005E02B4483F8AC70C5F8EC
:102AF000A820E2E7D5F8A8300BB1444510D097489C
:102B000006F004FF444507D854F80C0B06F0FEFE0F
:102B1000092006F0F4FEF5E7914806F0F7FE0026DE
:102B2000D5F8A8309E429FD28A4B985D06F0E7FE0A
:102B30000136F5E7D4F8A830002B40F0B085042822
:102B400040F0A78504F1AC0008F016FB00F07BBD57
:102B5000844F97F84A30012B40F07085DFF81882D7
:102B6000814B3A68C8F800701A60C246DFF8F891E5
:102B70004B46186802F084F9002800F04E85D9F819
:102B8000000002F078F9DAF80030834693F8481034
:102B900019B924283FD101223AE0012904D14D2856
:102BA0000CBF0222002233E0022904D13C280CBFD2
:102BB000032200222CE003290CD140284FF0000111
:102BC00002D983F8481045E058711971D97198718C
:102BD00004221DE0042907D1997983F8490080EA8D
:102BE00001029A71052213E0052933D15879197928
:102BF0008842987908D98BEA00009871481C1871AE
:102C00000B4483F808B025E058450CBF062200228B
:102C100083F848201EE033785B071BD4BBF1230FF9
:102C2000D9F800300CD1484A012150481170C5F83C
:102C3000A430C5F8743106F069FE494806F066FE16
:102C4000D5F878311B785B4504D1494A494B1A6065
:102C500009F0D2FFDAF80030DFF81C9193F8482031
:102C6000062A83D193F8490002F036FF002840F08D
:102C7000CA84D9F8002092F84930442B00F0BD8472
:102C800000F2AA80312B00F0848434D8272B00F086
:102C9000BD830BD8232B00F00381252B00F0AF83DD
:102CA000212B40F0F3844FF0000911E32B2B00F0AF
:102CB000CB8314D8292B40F0E98406F00DFEA4F84C
:102CC0000A0106F009FEA4F80C0106F0FAFD84F8EA
:102CD0000E0106F001FEA4F8100100F091BC2D2BAE
:102CE00000F0B6832F2B40F0D184DFF8909009F1EB
:102CF000400A00F03DBC392B00F095830ED8352BEF
:102D000000F0BC81372B00F0FB83332B40F0BE84F6
:102D100006F0D7FD84F81C0100F072BC3E2B00F0D9
:102D2000F8802FD83C2B40F0B184DFF85490D9F8CC
:102D300000A006F0C6FD8AF80000D9F80030187827
:102D400002F0E0F900F05CBC68320020181B0020A3
:102D5000189C0108C41B0020689D010813B20108DB
:102D600018B20108F41B00206C23002048B20108AF
:102D7000EFBEADDEF04F00206823002004090020E4
:102D800090110020412B00F09583432B40F07E846E
:102D900006F097FD0023A360607106F0A7FDA3680D
:102DA0001843A06006F08DFD84F81A0106F094FD2A
:102DB000A4F8E80006F090FDA4F8EA0006F08CFD07
:102DC000A4F8EC0006F088FDA4F80A0106F084FDE2
:102DD000A4F80C0100F014BCCE2B00F09C821CD88F
:102DE000C82B54D00CD84A2B00F09C804C2B00F000
:102DF0005483482B40F04A8407F0A0FC00F000BC4C
:102E0000CA2B00F09380C0F09482CC2B00F060813C
:102E1000CD2B00F0778200F039BCD32B32D00BD809
:102E2000D02B00F06482C0F0B781D12B00F0A982D2
:102E3000D22B14D000F02ABCD62B00F0028207D887
:102E4000D42B08BF4FF0000A00F01F8200F01EBC18
:102E5000EF2B4FD0FA2B00F0688200F017BC3378CC
:102E600003F0040303F0FF09002B40F0C98306F0D0
:102E700028FD022884F8C00640F23F82BC4B83F84C
:102E8000C0963AE206F028FDBA4B1880B8E392F8F3
:102E900005A04FEA5A0ABAF1120F1BD881461CE06E
:102EA00006F00FFD132815D8DFF8D8A200F1200B8B
:102EB000DAF8003003EB8B0B06F003FDAE4B0BF1A1
:102EC000010903F58A72197A814200F0C1800C333E
:102ED0009342F8D10AF048FC92E3D14507D206F0BC
:102EE000FBFCA64B23F8190009F10109F5E70122C3
:102EF000A34B18E2DFF88C92D9F800A006F0ECFCA6
:102F0000AAF86200D9F8009006F0E6FCA9F8600083
:102F100076E306F0D6FC84F8320106F0D2FC84F8A1
:102F200031016DE306F0D8FCA08169E3954B1A6886
:102F300099461278022A6ED14FF00009DFF844A2B8
:102F4000DAF800B006F0BDFC09F10A030BEB830BC5
:102F50000FF09CFC8C490FF0A5FDDAF80030CBF89F
:102F60000400029306F0ADFC0FF090FC87490FF0CF
:102F700099FD029B09F10E0B43F82B00DAF800B023
:102F800006F09FFC09F110030BEB830B0FF07EFCA6
:102F90007F490FF087FD09F10109B9F1030FCBF863
:102FA0000400CBD1B9F1070FDAF800B01AD106F05E
:102FB00088FC0FF06BFC74490FF074FDCBF85000E7
:102FC000DAF800B006F07DFC0FF060FC6E490FF0FF
:102FD00069FDCBF85400DAF800B006F072FC8BF80B
:102FE000580012E006F06DFC0BEB09035870DAF89C
:102FF00000B006F066FC0BEB0903D872DAF800B0FB
:1030000006F05FFC0BEB0903587509F10109B9F1F2
:103010000A0FC7D1F4E24FF0000AD9F800B006F069
:1030200050FC0BEB0A035870D9F800B006F049FCCD
:103030000BEB0A03D872D9F800B006F042FC0BEB98
:103040000A030AF1010ABAF10A0F5875E5D1D7E26D
:103050001B788BF8013006F034FC89F8010006F08B
:1030600030FC89F8020006F02CFC89F80300DAF83D
:10307000001001F181000AF0E9FAC1E206F021FC3A
:103080000B283FF627AF4FF0060A0AFB00F03D4B36
:10309000D0301B6803EB000A06F013FC03283FF650
:1030A00019AF8AF8060006F00CFC8AF8010006F059
:1030B00008FC8AF8020006F004FC8AF8030006F017
:1030C00000FC8AF8040006F0FCFB8AF8050097E291
:1030D0005379092B7FF6FEAEDFF8B890D9F800A03F
:1030E00006F0EFFB8AF80000D9F800A006F0E9FB33
:1030F0008AF8010006F0E5FBD9F800306428A8BF83
:103100006420187106F0DDFBD9F800306428A8BFF0
:103110006420587106F0D5FBD9F80030FF28A8BF0D
:10312000FF20987106F0CDFBD9F800A0642828BFD5
:1031300064208AF8070006F0C4FB8AF80200D9F878
:1031400000A006F0BEFB8AF80300D9F800A006F044
:10315000C3FBD8F80030AAF80A005B790A2B40F2CA
:103160004F82D9F8009006F0ACFB89F8080047E2DE
:10317000040900202E130020689D0108BA080020D1
:103180009908002090110020000020410000C84252
:1031900000007A444C13002006F09EFB6FF4AF61F0
:1031A00043189BB2C62B98BFA4F8200106F094FBED
:1031B000C74BA3F8D00006F08FFBC54AA2F8D20097
:1031C00006F08AFBC24BA3F8D40006F085FBC04A88
:1031D000A2F82E0106F075FBBD4B83F8400106F006
:1031E00070FB06F06EFBBA4A82F8410106F069FBFB
:1031F000B74B83F80F0106F064FBB54A82F81C0157
:1032000006F05FFBB34BD3F8009006F065FB00EBD4
:1032100080004000A9F85E0006F053FBAC4B83F839
:10322000060106F04EFBAA4A82F8080106F049FBA7
:10323000A74B83F8070106F044FBA54A82F8090171
:10324000DEE1814606F048FBA34B23F8090009F1B3
:103250000209B9F1100FF5D1D2E1A0F57A739BB252
:10326000B3F57A7F04D8D9F8003003EBCB03D880CC
:10327000D9F8009006F025FB0AF1010A09EBCB030F
:10328000BAF10A0F187200F0BB81DFF848920AF118
:10329000240BD9F80020039206F01EFB039A4FEA94
:1032A000CB031A445080D9F800200293039206F011
:1032B00013FB029B039A1A449080029306F00CFBC6
:1032C0000928029BC9D8D9F8002013445872C4E7D2
:1032D000804BD3F800A006F0F4FA0AEBC90309F119
:1032E0000109B9F10A0F83F82901F1D188E1337896
:1032F0005A0700F185810AF04BFE05F04DFB0DF0F9
:10330000FDFF7DE133785B0700F17A81734B4FF469
:10331000C8721A8074E13378580700F17181704BDC
:103320001A7842F004021A706AE133785907E4D53A
:10333000ACE106F0C6FA6A4B1A7810B142F002020C
:1033400001E022F002021A7006F0BBFA654BDFF8CA
:10335000AC91187006F0CAFAC9F8000006F0C6FA77
:10336000C9F8040006F0B8FA5F4B188006F0B4FA0A
:103370005E4B188095F8943143F0020385F8943140
:103380003EE106F09EFA029006F0B0FA834606F09F
:10339000ADFA824606F0AAFA814606F09DFA06F0DA
:1033A0009BFA06F08EFA029BA3B9514B1020C3F88A
:1033B00000B0C3F804A009F0F3FB494B1A7842F0BF
:1033C00001021A70B9F1000F00F01A81494BC3F8DD
:1033D000009015E1102B40F01381C5F898B1C5F8A5
:1033E0009CA1B9F1000F02D0424BC3F800904248B3
:1033F0000223011D85F8A0310CF0A4FC00E1A060BF
:1034000006F074FAA3681843A060F9E006F064FAC5
:10341000A4F8E80006F060FAA4F8EA0006F05CFA06
:10342000A4F8EC00ECE006F04CFA84F8060106F093
:1034300048FA84F8080106F044FA84F8070106F017
:1034400040FA84F80901DBE006F03BFA6071D7E04E
:1034500006F037FA84F81A0106F03EFAA4F82401BF
:1034600006F03AFAA4F8200106F036FAA4F8220190
:1034700006F027FAD8F8003084F81B015B79DFF8F2
:103480005090082B40F2BC8006F026FAA9F82601DD
:1034900006F022FAA9F82801B2E006F012FA84F840
:1034A0002C0106F00EFA84F82D0106F015FAA4F8A6
:1034B0002E01A5E04FF0000906F003FA04EB090322
:1034C00009F10109B9F1080F83F81201F4D197E06D
:1034D0000409002090110020941C002012120020EA
:1034E000FE08002088110020D6220020D4220020CF
:1034F000681A0020B0080020B01C0020881A0020A4
:1035000053794FF0070AB3FBFAFACAEBCA029B1AC7
:1035100013F0FF0F7FF4DEAC5FFA8AFABAF1000F06
:103520006ED006F0CEF95FFA80FB4FFA8BF006F012
:1035300057FA0AF1FF3A5FFA8AFA814600283FF407
:10354000C9AC80F800B006F0C7F9A9F8020006F08F
:10355000B8F989F8040006F0B4F989F8050006F016
:10356000B0F989F8070006F0ACF989F80600D5E74C
:1035700006F0B2F9A9F8000206F0A3F989F80202F0
:1035800006F09FF909F1040989F8FF01D145EFD14F
:1035900036E006F096F91F283FF69CACD9F80030CB
:1035A0005B79082B7FF496AC00F1600A06F094F981
:1035B00004EB8A0900F03F00A9F8020006F08CF93C
:1035C000B9F80220800100F4FE531343A9F8023039
:1035D00006F077F9000104F82A0006F072F914F8F1
:1035E0002A3000F00F00184304F82A0006F069F9A9
:1035F00089F8010002F00AF802E0012385F8A13100
:10360000002006F049F9D8F80030987906F014F94E
:10361000D8F80030002283F8482095F8A1316BB12A
:10362000386801F01EFC18B9322001F0DAFBF7E728
:1036300007F056FD01F0DFFB09F0DEFA544A4C3783
:1036400097427FF486AA534B1B689A0616D5524BB5
:10365000D5F8A4211B689A1A002A0FDB4F4A12786A
:10366000042A0BD94E4A03F5123303F5F873C2F856
:10367000A4314C4BDA6882F01002DA604A4B9B6846
:10368000002B00F08280494898477EE00AF06CF8F1
:10369000B9E70C2826D1464806F038F920E00C2876
:1036A000F9D00A2822D13E4C424804F1AC0606F07B
:1036B0002DF93046232112F054FA374610B1801B01
:1036C000C4F8A800D5F8A830BBBB30223A48002186
:1036D000C5F8A83012F011FA384A1378002BB2D08E
:1036E00037480FE07F2814D1FFF7BEB90D28DAD094
:1036F0007F280BD1013BC4F8A83000222344314875
:1037000083F8AC2006F002F9FFF7AEB92F2B3FF695
:10371000ABA9A0F12002D2B25E2A3FF6A5A913B947
:1037200020283FF4A1A95A1C2B44C5F8A82083F8EF
:10373000AC0006F0E4F8FFF797B9591E785C184A18
:10374000202802F1AC0601D10B46BDE7C2F8A83033
:103750000021134483F8AC101B4B0891009307A879
:103760001A491C220C23079612F061FA044638B15C
:10377000006812F003FA0130A3683044984702E071
:10378000134806F0C3F800239FE70BB0BDE8F08FA5
:103790008C1C0020A408002050320020881100203A
:1037A000181B0020000C014094110020C01C0020B8
:1037B0001DB2010848BF0108C41B00206832002068
:1037C00018B2010844B20108F5900008189C0108DD
:1037D00028B20108A94A2DE9F04F1368A849A94C5D
:1037E00003F59C4320330B60A74E238831680133D7
:1037F000238042F201030B4089B015461BB1A34B55
:103800001A7801321A7007F0D3FC3368DB0405D54F
:103810009F4B1B68DF0701D40DF058FA9D4B2F68B2
:1038200019688B7ABBB19C4A013B32F813000B7BC1
:103830001BB1C0F53B60083080B200B2A0F57A70D1
:10384000B0F57A7FA8BF4FF47A7020EAE0700FF0ED
:1038500021F892492FE03268100435D58B4A506820
:10386000381A002830DB07F59C40203050608C4827
:10387000C97A45798B4830F8150080B290FBF1F099
:10388000117A013101F00F0111720A445072184689
:10389000854A9A5C01331044102B80B2F8D100B2F3
:1038A00090FBF3F000B26428A8BF642020EAE07027
:1038B0000EF0F0FF7D490FF0F5F87D490FF03EF86E
:1038C0000FF028FA7B4B188033687B4D13F4807F10
:1038D00000F09A80794B9F4204D9237913B9694B40
:1038E00001221A71B4F900E02F78BEF1140FCCBF99
:1038F0004FF0000E4FF0010E624BC7F38007BEF190
:10390000000F06D04FF0000883F8068083F805808A
:1039100001E04FF003085D4B5F48DB69B4F900C07C
:103920000393674B94F806A0D3F8009062796388FC
:103930000188BAF1030F5BD8DFE80AF002102549CD
:10394000BEF1000F03D05448018000213DE0002F5C
:1039500040F09A865048A77101804DE003984FF0DF
:10396000010A90F800B00BEB8B0BDC45CCBFBB46DB
:103970004FF0000BBBF1000F3AD0013352469BB21F
:103980004FF0020AD5E77FB1B9F80E1042484180E6
:10399000B9F80E80A0F804800398B0F802803E4881
:1039A000A0F806804FF00208039890F800B090F855
:1039B00001A0DA440AEB8A0AD44500F36986002F95
:1039C00000F06686344801800221A17114E032487B
:1039D000627101800321A17163807FB12B78002285
:1039E00043F002032B70274B5A710DF06FF905E07D
:1039F000294884F806A0018062716380B8F1000F45
:103A000002D0404609F034F82E4FB7F8DE0007F038
:103A1000F5FA814660B901F0ABFB1C4B0022C3F8FC
:103A20002090C3F82490C3F82890DA621A635A638E
:103A30002B78590772D53368DA066FD5224B1B787D
:103A4000DB066BD4214BDFF8448093F800A0BAF179
:103A5000000F3FD097F83231B9F1000F44D1002B5D
:103A60003BD01B4B1A68D8F838309B1A002B34DA3D
:103A70000DF02CF988F83C9050E000BF5032002047
:103A80009C080020A022002040070020C81C002025
:103A9000A808002044070020BA08002000007A444B
:103AA000681B0020781B0020D11C00200000C842A9
:103AB00000C07F44FC1D00206A320020404B4C00B7
:103AC000AC03002004090020FE0800202100002093
:103AD00034320020B9F1000F19D1102008F0C8FFCE
:103AE000012388F83C3019E03BB1964A4FF47A71D3
:103AF000126801FB0323C8F8383098F83C306BB1EA
:103B000008F09AFF904B002283F83C2006E098F8DA
:103B10003C301BB108F090FF88F83CA0002297F8D9
:103B200030A197F83111B7F822E1B7F824C1134654
:103B3000DFF83C829B0838F9020002327045C4BFAE
:103B400063F07F03DBB26045B8BF43F04003082A4F
:103B5000EED17D4A92F83D009346984205D192F805
:103B60003E20F92A04D8013200E000228BF83E20E2
:103B70008BF83D30754BDFF804821A78DAB9D8F843
:103B80000030D80708D5B9F1000F14D12B78D90728
:103B900011D50CF003FE0EE02B785A070BD56C4BB9
:103BA0001B7843B1637933B911B10DF08FF802E09E
:103BB000B9F1000FF9D09BF83E20634B142ADFF8CF
:103BC000C09140F0958061481AF1000A027818BF50
:103BD0004FF0010A6AB393F83D205F2A11D12A7889
:103BE00002F0040202F0FF0112B10DF06FF808E0DC
:103BF0000B200191029308F03BFF0199029B83F88F
:103C00003E10BAF1000F14D09BF83D307D2B10D13F
:103C10002B7803F0040303F0FF0213B10DF056F804
:103C200007E00B20029208F023FF474B029A83F82B
:103C30003E202B7803F0040303F0FF00002B57D144
:103C40009BF83D30404A572B15D1424B4FF47A72C6
:103C50001A8033681B0601D501F090FD3E4B1B68AE
:103C6000580702D53D4A0A21118013F008033FD1BD
:103C70003B4A13803CE03168490715D55A2B13D1D4
:103C8000384B197819B118700122374B1EE092F8A1
:103C90003F3083F0010382F83F300BB10C2000E08D
:103CA0000D2008F0E5FE23E05D2B00F0F5845B2B92
:103CB00000F0F4845E2B0BD1032000F0F0BCA72BA6
:103CC00040F00D85294B1A7842F004021A700FE07B
:103CD000562B01D10AF06CFF1C490B78002B00F029
:103CE000F3849BF83D306F2B40F0E8840CF056FDD8
:103CF0003368580753D59BF83F30A3B12B78590749
:103D000011D51B4BB3F90620B7F822319A420ADDD0
:103D1000D8F8003013F0010305D1164A3221118082
:103D2000094A82F83F30D8F80030DA032AD5124B1E
:103D30001A782AB90B4A127812B90E4A3221118028
:103D400001222BE034320020C81C0020210000207A
:103D50003907002060320020A408002058320020DB
:103D6000841200203D1200203E120020FE08002098
:103D7000BA080020241200203C120020A8080020CD
:103D800090110020B04B1A784AB12A7802F0040250
:103D900002F0FF011AB91970AC4B01221A70D9F860
:103DA0000090002709F1810AC8F8007009F1830525
:103DB0000AF10203D919DA5D4B7815F8010C9A4221
:103DC0000CD2294603F0D0FF40B115F8023C012285
:103DD0009A40D8F800301343C8F800300437502F09
:103DE00005F10405E4D19A4B1F784FB1994FDFF8E4
:103DF00094823B68984D13F0020F40F00D8306E368
:103E000009F1D10809F1D20508F10103D919DA5DE8
:103E10004B7815F8010C9A4229D2294603F0A4FFE9
:103E200028B395F802E028798C4B0EF1FF3E4FF055
:103E30000C0C0EEB4E0E0CFB00FC9E44884B95F8D0
:103E400003A003F1400909EB0C02516871450ED043
:103E5000002109F80CA0C2F804E09160012202FAE6
:103E600000F093F8702022EA000083F87000063713
:103E7000482F05F10605C7D17A4A7B4B12681D68A9
:103E800004927A4A4FF0000A12780592784A039217
:103E9000039A1368002B00F0B0821F78002F00F007
:103EA000AC8252680498821A002A0DDB039900F54F
:103EB000FA724A60012101FA0AF1694A92F8700027
:103EC00020EA010182F87010059A002A00F095821C
:103ED0000398597810F8042CDFF884910432D2B298
:103EE000002940F04D82634931F912206249B1F84E
:103EF000201101F1C800824202DD93F8028015E032
:103F0000C8398A4203DA9B78C3F100080EE0012326
:103F100003FA0AF399F8702022EA0303049A89F855
:103F2000703002F5FA73039A536066E299F87020D4
:103F300042FA0AF2D30700F16082B8F1000FCCBF59
:103F40000220012008F004FE7A1E132A00F24C829F
:103F5000DFE812F014001E002B003A004F0056005C
:103F6000D2002E018A01B601E2014A023A00450060
:103F70005600D2002E01A50001015D012A7802EB56
:103F80000803FA2BA8BFFA2323EAE3732B7008E097
:103F90006A7802EB0803642BA8BF642323EAE37367
:103FA0006B70284600F0BCFE1EE2EA78284602EB61
:103FB0000803642BA8BF642323EAE373EB70D9F8EA
:103FC000741000F069FE0FE26A794244642AA8BFC7
:103FD000642222EAE2720D2F6A7100F005822A79CA
:103FE00002EB0803642BA8BF642323EAE3732B715D
:103FF000FAE1AA7902EB080383F30803AB71F3E15A
:10400000D9F87820117802293ED1404602920EF06C
:1040100041FC1A490EF046FD029A116B0EF086FB28
:10402000002181460EF028FE029A40B94846144904
:104030000EF040FE029A20B1DFF8449001E04FF00C
:104040000009C2F8309027E03D1200203E12002007
:1040500068320020A8080020AC080020989F0108C2
:10406000C81C0020343200204C13002039070020E7
:104070000C1D0020BA080020040900200000204187
:104080000000C842A408002091784144C829A8BF74
:10409000C82121EAE17191700F2F00F0A581AE4A8D
:1040A000D2F8789099F80020022A19D140460EF0F3
:1040B000F1FBAA490EF0F6FCD9F82C100EF036FBF5
:1040C000002107460EF0D8FD30B93846A4490EF05D
:1040D000F1FD10B1A24F00E00027C9F82C7083E178
:1040E00099F8012002EB0803C82BA8BFC82323EAD4
:1040F000E37389F8013077E1D9F878201178022943
:104100001ED1404602920EF0C5FB95490EF0CAFC46
:10411000029AD16B0EF00AFB002181460EF0ACFD35
:10412000029A40B948468E490EF0C4FD029A20B169
:10413000DFF82C9201E04FF00009C2F83C9007E054
:10414000117B4144C829A8BFC82121EAE17111733C
:10415000102F00F04981804AD2F8789099F8002019
:10416000022A19D140460EF095FB7D490EF09AFCCB
:10417000D9F838100EF0DAFA002107460EF07CFD6F
:1041800030B9384676490EF095FD10B1744F00E015
:104190000027C9F8387027E199F80B2002EB0803D3
:1041A000C82BA8BFC82323EAE37389F80B301BE1AF
:1041B000D9F87820117802291ED1404602920EF0DB
:1041C00069FB68490EF06EFC029A916C0EF0AEFA33
:1041D000002181460EF050FD029A40B948466049E0
:1041E0000EF068FD029A20B1DFF8749101E04FF003
:1041F0000009C2F8489007E0917D4144C829A8BF52
:10420000C82121EAE1719175112F00F0ED80524A29
:10421000D2F8789099F80020022A19D140460EF081
:1042200039FB50490EF03EFCD9F844100EF07EFAEE
:10423000002107460EF020FD30B9384648490EF0FF
:1042400039FD10B1464F00E00027C9F84470CBE0BB
:1042500099F8152002EB0803C82BA8BFC82323EA4E
:10426000E37389F81530BFE0D9F8789099F8002009
:10427000022A19D140460EF00DFB38490EF012FC0F
:10428000D9F834100EF052FA002107460EF0F4FC73
:1042900030B9384632490EF00DFD10B1304F00E014
:1042A0000027C9F834709FE099F8032002EB080357
:1042B000C82BA8BFC82323EAE37389F8033093E02F
:1042C000D9F8789099F80020022A19D140460EF0CA
:1042D000E1FA23490EF0E6FBD9F840100EF026FA79
:1042E000002107460EF0C8FC30B938461C490EF0D4
:1042F000E1FC10B11A4F00E00027C9F8407073E0EC
:1043000099F80D2002EB0803C82BA8BFC82323EAA5
:10431000E37389F80D3067E0D9F8789099F80020B8
:10432000022A21D140460EF0B5FA0E490EF0BAFB32
:10433000D9F84C100EF0FAF9002107460EF09CFC5B
:1043400030B9384606490EF0B5FC10B1044F00E014
:104350000027C9F84C7047E0C81C0020000020412D
:104360000000C84200007A4499F8172002EB0803C5
:10437000C82BA8BFC82323EAE37389F8173033E0BA
:10438000012931D1A548997830F91220B2F5617F21
:1043900005DB40F633039A42B8BF134601E04FF401
:1043A00061730C2F20D14FF49660A3F5617390FBDD
:1043B000F1F093FBF0F099F87C30C0B2834213D057
:1043C0000328974A94BF034602238BF87C3007FBEF
:1043D0000323944902330B60029000F0BBFC029867
:1043E0000130C0B208F0B4FB012202FA0AF28E4B8F
:1043F00093F870100A4383F87020039A0AF1010AB7
:104400000C32BAF1040F03927FF442ADEEE433684C
:10441000D8050FD563796BB1D8F80030990709D565
:104420002B8813F001040AD100F0A2FE012008F04D
:10443000A7FB04E0012008F0B3FB012300E0002308
:104440003A6852070CD55BB1012008F0A9FB2B8814
:104450009E0708D400F08CFE022008F091FB02E0D9
:10446000022008F09DFB2B88704A13F0030F4FF0D9
:10447000100114BF51611161D8F8002012F00A0F29
:1044800023D03A68D40609D558070AD4042008F086
:1044900077FB674B1A88674B1A8002E0042008F00C
:1044A0007FFB3B68990606D52B885A0606D4402028
:1044B00008F066FB02E0402008F072FB3B685B06F8
:1044C00003D55B4B1A885C4B1A80D8F800309E06E7
:1044D00008D43B681D0540F1C9804FF4807008F096
:1044E0004FFBC7E0554B1B789C0765D5544B1B7899
:1044F000042B61D93B6813F400760ED02B88D806C4
:104500004ED4102008F03CFB202008F049FB4D4819
:10451000011D0BF017FC02223EE02C8804F0100471
:10452000A4B22CB1102008F03BFB474B01241E70B5
:104530003B68590529D5454B1B685A89444BB3F94B
:1045400000100029B8BF4942914209DAB3F902309C
:10455000002BB8BF5B429342ACBF0023012300E0B5
:10456000002393B12B889A061BD4202008F008FB67
:10457000384B39481A685B68011D436002600BF0D4
:10458000E1FB314B01241C700BE02B889B0608D506
:10459000202008F005FB00222B4B01241A7000E0BC
:1045A0000024214D95F87D30ABB90E2008F060FA5B
:1045B000012385F87D300EE02B8803F03003002BBB
:1045C00087D0102008F0ECFA202008F0E9FA1E4B02
:1045D00000221A7002E0002C3FF47BAF00231A4641
:1045E0001E49002050521E491E4C50521E49E518CB
:1045F00050520021195102326860A96004F1280567
:104600005034595119511D441C44042A6860A96052
:104610006060A16003F11403E2D15AE7BA080020F8
:10462000C40F00204C130020C81C0020000C0140C7
:10463000841200202E130020581B0020FE080020AA
:1046400088110020681A0020B81C002040130020A8
:1046500026130020881A0020B01C002054320020AD
:1046600044130020481D0020481300204FF48070A0
:1046700008F096FA3B4B5B79082B01D00E2B6DD1DD
:10468000402008F08DFA69E04FF0010AFFF751B9B8
:104690004FF0030AFFF74DB9012000E002205FFA56
:1046A00080FA0AF1FF3387F8C03604F075F90CF090
:1046B00025FE504608F04CFAFFF71ABBBAF1000F7E
:1046C00002D07E2B3FF412AB9BF83D30972B7FF44A
:1046D000F6AA254B4FF4C8721A80FFF709BB0022D7
:1046E000BB2B079201D1022303E0B72B04D14FF675
:1046F000FE73ADF81E3009E0BE2B01D1022303E0AA
:10470000BD2B1AD14FF6FE73ADF81C30D9F800302E
:10471000BDF81C10B3F860200A44A3F86020BDF86F
:104720001E10B3F862200A44A3F862200AF040FA8F
:1047300000238BF83E30FFF7DBBA792B04D10B4B0B
:10474000DA7822F0010206E07A2B7FF4D1AA074B37
:10475000DA7842F00102DA70FFF7CABA09B0BDE8B0
:10476000F08F00BF0409002012120020580300201F
:10477000034B4FF4805208B11A6170475A61704779
:1047800000080140034B4FF4805208B15A61704752
:104790001A6170470008014003685A1C02601970D2
:1047A0007047124A30B50028B8BF4042104C90FB09
:1047B000F2F304FB03003C2568430E4D90FBF2F23C
:1047C0002D682D7B25B903EB830303EB830301E005
:1047D000C3EB031302EB830304FB02020B804FF4D1
:1047E0007A7392FBF3F24A8030BD00BF8096980046
:1047F000806967FFC8220020016B0346C26810B5BC
:10480000406941B1196C541A005D013918BF0A465C
:10481000C0B21A6410BD196A405C0131914228BFD0
:104820000021C0B2196210BD036B13B15A68036C4A
:1048300001E0C269036A9A4237BFC068C3EB020055
:104840008018C3EB0000C0B27047436B13B190F8FF
:1048500044007047826A436AD31A584258417047ED
:1048600043799B070AD5436A8269D154426A036936
:104870000132B2FBF3F103FB11234362704743792A
:1048800013F0010307D0C368C169026A013B881AAB
:104890001840C0B2704718467047437910B513F0FE
:1048A000010304460DD0FFF7EAFF58B1226A63699D
:1048B000985CE3680132B2FBF3F103FB112323623E
:1048C00010BD184610BD426A806A131A58425841FA
:1048D000704741717047334A10B5136C90681944A2
:1048E000081A40F68C2398429160D06051601346BC
:1048F0003CD9127893F945108A420BD1111F08292F
:1049000008D893F84610182901D8013103E083F83C
:10491000442002E0002183F8461093F944108A42B3
:104920001CD1204991F84710C1B1002191421E4885
:1049300006DA03EB8104246920F811400131F5E720
:10494000511E00EB41011630814203D0002421F8B2
:10495000024FF9E7154908780130087083F84520BF
:10496000002201211A7083F8471010BD92F84710F9
:10497000B9B1A0F2EF2440F2DA518C4208D8117894
:104980000B2905D80B1D0131117042F8230010BD11
:10499000002283F84720991804320020302A086149
:1049A000F9D110BDE8000020942300209A080020CF
:1049B00010F80A3C0133DBB20A2B00F80A3C07D995
:1049C00010F8131C034A002322F8113000F80A3CA7
:1049D000704700BF94230020024B1A6C013211442F
:1049E00019647047E8000020024B53F820301B6820
:1049F0001980704710020020074BA1F57A7153F817
:104A000020304FF47A701A681B894B4393FBF0F304
:104A10009BB21380704700BF100200202DE9F04FB9
:104A2000504A514E1768738984463089A7EB032793
:104A300085B0039187FB0001B288CB111404C20931
:104A4000F08842EA416287FB000114EB0208728899
:104A50004FF000054FEAC2344FEA1022B08945EB0F
:104A6000030942EA01620B1287FB000114EB020A00
:104A70004FEAD05242EA41224FF0000545EB030BCA
:104A800012F5FA604FEAE15343F10001CDE900016C
:104A9000B0F5FA6F71F1000147DAA2FB024502FBA3
:104AA00003F1052605EB4105A4FB060106FB0511F4
:104AB0004D104FEA3004B8EB040869EB050984088F
:104AC0002A4844EA81748D104FF0FF31BAEB040A92
:104AD0006BEB050BDDE9004584428D4125DA40F69C
:104AE000AC5012184FF0000143EB010302FB03F13D
:104AF000A2FB02236FF0060003EB4103544200FBCC
:104B00000344A2FB000118EB000821444FF00B0402
:104B100049EB0109A2FB040104FB031149104FEA10
:104B20003000BAEB000A6BEB010B114B1A68A2FBC9
:104B30000A0102FB0B11420D42EAC1224B15B2EBF6
:104B4000080263EB0903D00B40EA4340BCF1000FBD
:104B500001D0CCF80000039808B10099016005B0BD
:104B6000BDE8F08FF42100206C03002024FAFFFF41
:104B7000F8210020324B2DE9F0411C88314B0A26E8
:104B80005A89B3F91250A41A1A89ED025443B3F9A1
:104B90001420E413224495FBF2F22244DA615643D6
:104BA000A2F57A6202FB02F4B3F90480B3F902C001
:104BB000B3F90E7002FB0CFC02FB08F2B3F90C8097
:104BC0002413674304FB08F4241404EB623202321A
:104BD000DC88921002F50042B3F920506243B3F929
:104BE00000304FEAEC2404EBE72404EB8304AC40F0
:104BF000154B02341B68D20BA3EBA4044CF25033C8
:104C00002B41634355BF5B00B3FBF2F3B3FBF2F3FD
:104C10005B001A12524340F6DE3462430B4C0836F6
:104C20005C43241404EB224202F6CF62361103EBFC
:104C3000221300B1036001B10E60BDE8F08100BF36
:104C400004220020800300200022002043E3FFFF15
:104C5000024B4FF480521A80704700BF10000020B2
:104C600030B50B4B0B4A1C681378042B0DD8591C1C
:104C700004EBC3039D88C9B2284203F1020302D0AA
:104C80001170184630BD0B46EFE71370002030BDA1
:104C9000901C0020CE2000202DE9F0478278C678B5
:104CA0001E4BC2F1640802EB820C54425FFA88F892
:104CB0004FEA4C0CC6F16409A4B203F11807A5B27F
:104CC00028B2002804DC002D14BF1546012500E0A1
:104CD000454600FB00FA6D430AFB06FA9AFBF5F520
:104CE0004D4468434FF00A0A90FBFAF0604480B2EA
:104CF00058800D88B1F802A000B2C5EB0A0A00FB8B
:104D00000AF04FF47A7A90FBFAF0054423F8025F38
:104D10000A34BB42A4B2D2D1BDE8F0873E1B0020CA
:104D200010B544780078002303FB03F1193961437F
:104D300001F6C4115943414340F6C41291FBF2F10C
:104D4000034A22F813100133072BEDD110BD00BF29
:104D5000181B002010B50D4C2068FFF7E1FF2068FC
:104D60000023047A03FB03F11939614301F6C411EE
:104D70005943192291FBF2F1054A22F8131001332D
:104D8000072BEFD1BDE81040024985E74C13002006
:104D9000261B0020D409002010B5094A09491368D0
:104DA000886812689342F8D1074A11684FF47A7202
:104DB00002FB01F4201AB0FBF1F002FB030010BD6E
:104DC0003432002010E000E0C800002038B504466E
:104DD000FFF7E2FF0546FFF7DFFF401BA042FAD3D3
:104DE00038BD10B504462CB14FF47A70FFF7EEFFD2
:104DF000013CF8E710BD08B50F4B1A780023D9B273
:104E0000914207D20D49002051F82310013309685F
:104E10000880F4E73220FFF7E4FF094B1B685A03D0
:104E200008D5084B9B685B0304D4BDE8084040F2FA
:104E3000DC50D6E708BD00BF6B3200201002002016
:104E4000400700200409002008B5024B1B68984762
:104E500008BD00BF4832002008B503685B69984769
:104E600008BD08B503681B69984708BD08B5036805
:104E7000DB68984708BD08B503689B68984708BD7C
:104E800008B503685B68984708BD10B5044C2068F6
:104E9000FFF7F6FF18B12068FFF7EDFFF6E710BD4A
:104EA0004C23002008B503681B68984708BD014BD8
:104EB0001868F7E78C1C0020A0F17D03012B70B56A
:104EC00004460D460A4E05D830687D21FFF7EAFFFB
:104ED00084F0200430682146FFF7E4FF35B12B88C9
:104EE0001C4404EB142404F0FF042C8070BD00BFAC
:104EF0007823002038B5054C05465E212068FFF771
:104F0000D1FF20682946BDE83840CBE71C3000209F
:104F1000014B5E211868C5E71C30002010B50A4C13
:104F20005E280146206805D15D21FFF7BBFF2068A0
:104F30003E2105E05D2903D1FFF7B4FF20683D2144
:104F4000BDE81040AEE700BF1C30002010B504469D
:104F5000C0B2FFF7E3FFC4F30720BDE81040FFF73E
:104F6000DDBF13B5044601A90068FFF71AFC132042
:104F7000FFF7C0FFBDF90400FFF7E8FF1B20FFF7B4
:104F8000B9FFBDF90600FFF7E1FF2320FFF7B2FFED
:104F90002368002BACBF4E205320FFF7D7FF01A999
:104FA0006068FFF7FEFB1220FFF7A4FFBDF90400C5
:104FB000FFF7CCFF1A20FFF79DFFBDF90600FFF7B2
:104FC000C5FF2220FFF796FF6368002BACBF45208A
:104FD0005720FFF7BBFF02B010BD064B1B6803EB69
:104FE000C00090F9063019420CBF01204FF0FF308D
:104FF000704700BF581300200A4B1A6802EBC0022A
:10500000D379FF2B07D008490978994203D9074A79
:1050100032F8130004E00928D4BF908840F2DC5035
:1050200000B2704758130020FA1D0020BA08002073
:105030002DE9F84F2E4E04463768384610F0DAFF57
:105040000546384611F04AF876688046304610F03A
:10505000D1FF8346304611F041F8D4F8049006465B
:10506000294648460DF06AFCA76882464146384604
:105070000DF064FC014650460DF056FB2168824657
:1050800058460DF05BFC4146044648460DF056FC80
:1050900031460DF053FC014620460DF047FB3146EA
:1050A000044638460DF04AFC29460DF047FC0146FF
:1050B00020460DF03BFB0146504611F0C5F80D4966
:1050C0000DF03CFC0C490DF0EDFC0C4B19680DF09B
:1050D0002DFB0B490DF0E6FC10F0C2FF83B21A0461
:1050E00044BF00F5B4739BB218B2BDE8F88F00BF9F
:1050F000701200200000E144DB0F4940A8030020AB
:105100000000204101380A4B042804D8DFE800F0F1
:105110000507090B0D00074A08E0074A06E0074AA1
:1051200004E0074A02E0074A00E0074A1A607047B5
:10513000480000201D7700081D9A0008D10D0108C5
:10514000999C0008796E0008D9710008064B1B78FD
:1051500003F0040303F0FF001BB1044B1888C0F3F5
:10516000C01000F0010070476A320020AC08002037
:10517000044B00221A605A60034B00221A605A60E6
:10518000704700BFF4200020301F0020044B1A8815
:1051900011B21429CCBF143A00221A80704700BF04
:1051A000A02200202DE9F04102780346202A00F1D8
:1051B0000100F9D0092AF7D02D2A02D10346414D2A
:1051C00004E02B2A08BF03464FF07E551E460024FC
:1051D000334616F8012BA2F13007F9B209290DD890
:1051E000394920460DF0AAFB044638460DF052FB23
:1051F000014620460DF09AFA0446E9E72E2A17D117
:10520000314F334616F8010B3038C2B2092A0FD895
:105210000DF040FB39460DF045FC014620460DF0EF
:1052200085FA2949044638460DF088FB0746E8E729
:105230001A7802F0DF02452A38D15A782D2A02D195
:105240000233012604E02B2A14BF01330233002667
:10525000013B002713F8012F303AD1B2092903D8B6
:105260000A2101FB0727F5E7B7F59A7F28BF4FF41E
:105270009A77B8464FF07E51B8F1070F07D9084624
:1052800012490DF05BFBA8F108080146F4E707F0AE
:10529000070737B108460C490DF050FB013F0146A6
:1052A000F7E72EB120460DF0FDFB04E04FF07E51F4
:1052B00020460DF043FB014628460DF03FFBBDE8BC
:1052C000F08100BF000080BF0000204120BCBE4C28
:1052D000F0B50124B0FBF4F58D4201D34C43F9E75E
:1052E0000026DCB1B0FBF4F504FB1500B4FBF1F4CF
:1052F0001EB9002D01DC002CF3D1092D03F10107AB
:105300005FFA85FC04DD002A0CBF5725372500E035
:10531000302565441D7001363B46E2E71C70F0BD48
:10532000F0B50124B0FBF4F58D4201D34C43F9E70D
:105330000026DCB1B0FBF4F504FB1500B4FBF1F47E
:105340001EB9002D01DC002CF3D1092D03F101075A
:105350005FFA85FC04DD002A0CBF5725372500E0E5
:10536000302565441D7001363B46E2E71C70F0BDF8
:1053700070B50646B6FBF2F40846154614B1204651
:10538000FFF7F6FF05FB1464024B1B5D00F8013BC1
:1053900070BD00BF92B601082DE9F843089E002BAE
:1053A0000746884614460CBF4FF020094FF03009DD
:1053B000334613F8012B0AB9254603E0002CFBDD28
:1053C000013CF6E7002D04DD38464946C047013D63
:1053D000F8E724EAE4742546331B595D19B13846D1
:1053E000C0470135F8E72846BDE8F8832DE9F04FBE
:1053F0000C68836889B0D0F800A0D0F80480064615
:10540000204603938B4610F0F5FD0746204610F02A
:1054100065FEDBF804408146204610F0EBFD0546B2
:10542000204610F05BFEDBF808200446104601928F
:1054300010F0E0FD019A8346104610F04FFE394609
:10544000029058460DF07AFA3946049002980DF011
:1054500075FA5946059048460DF070FA0299069083
:1054600048460DF06BFA2946079058460DF066FA4B
:10547000014650460DF062FA2146834606980DF02B
:105480005DFA014605980DF051F9014640460DF0D0
:1054900055FA014658460DF049F9214683460498CD
:1054A0000DF04CFA014607980DF03EF901460398BD
:1054B0000DF044FA014658460DF038F93060029973
:1054C00005F100400DF03AFA014650460DF036FA6B
:1054D0002146834607980DF031FA014604980DF0F5
:1054E00023F9014640460DF029FA014658460DF0D1
:1054F0001DF92146834605980DF020FA01460698CD
:105500000DF014F9014603980DF018FA01465846BB
:105510000DF00CF92146706050460DF00FFA294647
:10552000044609F100400DF009FA014640460DF02D
:1055300005FA014620460DF0F9F83946044628469A
:105540000DF0FCF9014603980DF0F8F901462046EC
:105550000DF0ECF8B06009B0BDE8F08F80EAE073C0
:10556000A3EBE0738B4206DB002801DD401A704795
:1055700002D00844704700207047034B9A6822EA23
:1055800000009860704700BF04090020022803D083
:10559000431E584258417047064B1B681B7823B185
:1055A000054B1868C0F3C0407047044B1878C0F32F
:1055B0008000704708070020A80800206A320020F9
:1055C00008B5084810F0DAFAC0B209280246054BBF
:1055D00004DC01302021C0B29954F6E700221A54AD
:1055E00008BD00BF4D2B002008B5074810F0C6FAD3
:1055F000C0B21428044B04D8421C20211954D0B244
:10560000F7E700221A5408BD4D2B0020F0B5244ABC
:10561000244D2549002314682B700B701A46184638
:10562000A61876884EB9A75C3FB92B700023087086
:105630004B702F7818461A460CE0360548BF0130EB
:1056400002F1040203F1010348BFC0B2802ADBB2B9
:10565000E6D1EAE7C5B2BD420CD214F820500130C1
:105660002E099E4205F00F05A8BF731C9542A8BFE6
:105670006A1CEFE74B708A700C4851084C1E04708E
:1056800002F001020A4811440170C3F347020949BC
:10569000501E087003F0010307491A440A70F0BD58
:1056A0009022002098220020C01D0020B02200205F
:1056B000B2220020B3220020B1220020F8B5101A37
:1056C0000C461F460DF0E6F80546381B0DF0E2F8D3
:1056D000174B079E19680DF031F9294604462846F4
:1056E0000DF02CF92146074620460DF027F901461A
:1056F00038460DF01BF810F031FF0E490DF01EF981
:105700000DF008FB069B2146186005F1004010F0E3
:105710009BFD09490DF012F908490DF007F80DF04D
:10572000D3FA0028BCBF00F50C40A0303060F8BDB3
:10573000240000202C7D8E3FA00CB34500A00C4619
:1057400010B50DF0A7F8002104460DF0B3FA08B12A
:10575000204601E004F1004005490DF0A3F9054998
:105760000DF0ECF810F046FC034B186010BD00BFC4
:105770008096184B35FA8E3C2400002010B50C4C56
:1057800023789B0713D50B4B1B78042B0FD90A4AA0
:105790000A4B1068526818605A60FFF7D1FF084B37
:1057A0001A88084B1A80237843F00103237010BD38
:1057B000FE08002088110020881A0020681A0020A6
:1057C00084120020D821002070B5044640790DF0E5
:1057D0005DF81E490DF066F91D4D1E4E2860E07BF8
:1057E0000DF054F819490DF05DF9EE606860A0798C
:1057F0000DF04CF818490DF055F9184D2860207C33
:105800000DF044F811490DF04DF96860A07E0DF0DF
:105810003DF813490DF046F9EE60A860E0790DF00F
:1058200035F80D490DF03EF90E4D2860607C0DF005
:105830002DF806490DF036F96860E07E0DF026F887
:1058400007490DF02FF9EE60A86070BD0000C84256
:10585000942100200000FA4400002041A4210020EF
:1058600000007A44C821002044F25063984203DDCE
:10587000A0F50C40A0387047034B9842BCBF00F520
:105880000C40A030704700BFB0B9FFFF10B50A4B05
:105890000A4A1B7842609C18094A046012789A42AE
:1058A00004D3D31A0B6000234B6010BDC3F18003F7
:1058B0000B604A6010BD00BF681F0020921E0020D0
:1058C000911E00201FB5684602A9FFF7DFFF044BB9
:1058D0001868029B1844039B184405B05DF804FB4C
:1058E00010300020034A00231370034A1370034A48
:1058F00013707047911E0020681F0020901E00202A
:105900002DE9F041038A87890446BFB20D461F4046
:10591000002F36D0B7FA87F34FF00042DA40D24377
:1059200091B21B3B21821740042BF1D8DFE803F032
:10593000221F1C1903006B6A33B103F1FF380023E7
:105940001FFA88F86B6203E0B4F82C801FFA88F81D
:105950002E6A002EDCD03368304641469847766880
:10596000F7E72868A18E08E06868218F05E0A8683D
:10597000A18F02E0E868B4F84010036889B2984744
:10598000C6E7BDE8F0810C4B800A98420CD003D8E2
:10599000B0F5801F0ED00BE0084B984206D049337B
:1059A000984205D1002070470220704703207047BD
:1059B000FE20704701207047010010000200100017
:1059C00090F83B3210B57BB990F83A3290F8392212
:1059D000934209D201219940B0F84042013321435A
:1059E000A0F84012DBB2F3E710BD8379DB0703D5E3
:1059F000D1F1010138BF0021D0F834315A681B8938
:105A000009B11361704753617047044B53F820305C
:105A10001BB109289CBF1B681980704740020020F9
:105A200010B5054C00202188FFF7EFFF61880120A9
:105A3000BDE81040E9E700BFB018002001F0030303
:105A40009B000F229A40984001F0FC0101F1804137
:105A500001F5803110B58C6824EA02028A608A68F8
:105A600002438A6010BD2DE9F0410F88002347FAF8
:105A700003F2D2072BD58A7803F0070512F0100F36
:105A800018BF91F803C002F00F0618BF46EA0C06D3
:105A9000AD004FF00F0C0CFA05FC06FA05F5DC081A
:105AA00050F82480282A28EA0C0C45EA0C0540F816
:105AB000245005D101229A40C46824EA020205E07C
:105AC000482A04D101229A40C4682243C2600133AB
:105AD000102BCCD1BDE8F0812DE9F04F4728A9B0BB
